:020000020000FC
:1000000069C05D9BFECF0CB908955F9BFECF0CB11C
:100010000895102F20E017FF04C001E30E940100A3
:1000200003C000E30E940100110F2395283099F7C7
:100030000895980137FF07C00DE20E94010021508A
:100040003040209530954427B7E2A0E143952A1B24
:100050003B0BE0F74A952A0F3B1F00E3040F0E9479
:1000600001004427B3E0A8EE43952A1B3B0BE0F7C1
:100070004A952A0F3B1F00E3040F0E94010044270A
:10008000B0E0A4E643952A1B3B0BE0F74A952A0F04
:100090003B1F00E3040F0E9401004427B0E0AAE0E8
:1000A00043952A1B3B0BE0F74A952A0F3B1F00E3C1
:1000B000040F0E9401004427B0E0A1E043952A1BF1
:1000C0003B0BE0F74A952A0F3B1F00E3040F0E9409
:1000D000010008950FE50DBF08E00EBF06E010E037
:1000E00010BD09B908E10AB906E800BD0C94780012
:1000F0000E94050001E40E9401000DE00E94010041
:080100000AE00E940100F4CFA7
:00000001FF
