:020000020000FC
:0200000017C027
:100028000C941600039418950FE50DBF08E00EBF59
:100038000FEF07BB08BB0CE003BF00E002BF06E2FE
:100048000CBF69E102E009BF78940C942B000020F2
:10005800F1F30A9443954A3049F4442708B3102F22
:10006800109500741272012B009508BB53955931F5
:1000780049F4552708B3102F109500721274012BFC
:10008800009508BB6395623311F7662708B3102FF4
:0E009800109502701076012B009508BBD8CF92
:00000001FF
