:020000020000FC
:1000000000C00FE50DBF08E00EBF0BEB01BB0FEF0B
:1000100007BB0FEF08BB002711272227332700C09B
:100020001AE00FE530E02AE413D032E020E510D0EA
:1000300035E024E60DD033E428EC0AD025E00BD0DF
:10004000322F212F102F1095209530950FD0E8CF0B
:10005000020F131F0895FF27EE273196021B104051
:10006000E0F73197020F202F8F01089500B30B6B3B
:100070000095002351F0043431F006FF02C018BB94
:1000800006C028BB04C038BB02C00FEF08BBEECFD0
:10009000089516EC00001A95E9F7000000000A9593
:0400A000C1F7089507
:00000001FF
